:100000000C9463000C948B000C948B000C942804CB
:100010000C9428040C9428040C948B000C948B00F2
:100020000C948B000C948B000C948B000C948B0024
:100030000C948B000C948B000C948B000C948B0014
:100040000C94DE030C948B000C94AC030C9486038C
:100050000C948B000C948B000C948B000C948B00F4
:100060000C948B000C948B000000000024002700EF
:100070002A0000000008000201000003040700003D
:1000800000000000000000000000230026002900FE
:1000900000000000250028002B00040404040404D0
:1000A0000404020202020202030303030303010227
:1000B00004081020408001020408102001020408F6
:1000C0001020A004D20811241FBECFEFD8E0DEBF5D
:1000D000CDBF11E0A0E0B1E0E6E9F2E102C0059099
:1000E0000D92AC38B107D9F723E0ACE8B1E001C01C
:1000F0001D92AF3AB207E1F710E0C2E6D0E004C0CB
:100100002197FE010E942409C136D107C9F70E9438
:1001100057050C943E090C940000AF92BF92CF9209
:10012000DF92EF92FF920F931F93CF93DF936C01B7
:100130007B018B01040F151FEB015E01AE18BF0898
:10014000C017D10759F06991D601ED91FC9101904A
:10015000F081E02DC6010995892B79F7C501DF9162
:10016000CF911F910F91FF90EF90DF90CF90BF90B4
:10017000AF900895FC01538D448D252F30E0842FDE
:1001800090E0821B930B541710F0CF9608950197BF
:100190000895FC01918D828D981761F0A28DAE0FAC
:1001A000BF2FB11D5D968C91928D9F5F9F73928F33
:1001B00090E008958FEF9FEF0895FC01918D828D5F
:1001C000981731F0828DE80FF11D858D90E008952C
:1001D0008FEF9FEF0895FC01918D228D892F90E084
:1001E000805C9F4F821B91098F739927089589ED39
:1001F00091E00E94EB0021E0892B09F420E0822F9E
:10020000089580E090E0892B29F00E94F700811189
:100210000C9400000895FC01A48DA80FB92FB11D06
:10022000A35ABF4F2C91848D90E001968F7399272C
:10023000848FA689B7892C93A089B1898C9183700A
:1002400080648C93938D848D981306C00288F38903
:10025000E02D80818F7D80830895EF92FF920F9330
:100260001F93CF93DF93EC0181E0888F9B8D8C8D62
:1002700098131AC0E889F989808185FF15C09FB756
:10028000F894EE89FF896083E889F9898081837019
:10029000806480839FBF81E090E0DF91CF911F91C8
:1002A0000F91FF90EF900895F62E0B8D10E00F5FE9
:1002B0001F4F0F731127E02E8C8D8E110CC00FB6BF
:1002C00007FCFACFE889F989808185FFF5CFCE0157
:1002D0000E940B01F1CFEB8DEC0FFD2FF11DE35AC6
:1002E000FF4FF0829FB7F8940B8FEA89FB898081DA
:1002F0008062CFCFCF93DF93EC01888D8823B9F054
:10030000AA89BB89E889F9898C9185FD03C0808120
:1003100086FD0DC00FB607FCF7CF8C9185FFF2CF9D
:10032000808185FFEDCFCE010E940B01E9CFDF91E7
:10033000CF91089590E0FC01EE58FF4F2491FC010D
:10034000E255FF4F3491FC01E656FF4FE491EE2356
:10035000C9F0222339F0233001F1A8F4213019F13A
:10036000223029F1F0E0EE0FFF1FE057FF4FA5917B
:10037000B4918FB7F894EC91611126C030953E236B
:100380003C938FBF08952730A9F02830C9F024305E
:1003900049F7809180008F7D03C0809180008F7726
:1003A00080938000DFCF84B58F7784BDDBCF84B5A9
:1003B0008F7DFBCF8091B0008F778093B000D2CF3C
:1003C0008091B0008F7DF9CF3E2BDACF61E08CE0D9
:1003D0000C949A0160E08CE00C949A01CF93DF9327
:1003E00090E0FC01E255FF4F249186569F4FFC019F
:1003F00084918823D1F090E0880F991FFC01E8597F
:10040000FF4FA591B491FC01E057FF4FC591D491E6
:1004100061110EC09FB7F8948C91E22FE0958E2366
:100420008C932881E223E8839FBFDF91CF910895C9
:100430008FB7F894EC91E22BEC938FBFF6CF3FB7D8
:10044000F8948091CD019091CE01A091CF01B0910F
:10045000D00126B5A89B05C02F3F19F00196A11D1C
:10046000B11D3FBFBA2FA92F982F8827BC01CD01FE
:10047000620F711D811D911D42E0660F771F881F5D
:10048000991F4A95D1F708958F929F92AF92BF928C
:10049000CF92DF92EF92FF924B015C010E941F020C
:1004A0006B017C010E941F026C197D098E099F0956
:1004B000683E734081059105A8F321E0821A9108F6
:1004C000A108B10888EEC80E83E0D81EE11CF11C1B
:1004D00081149104A104B10429F7FF90EF90DF90FB
:1004E000CF90BF90AF909F908F9008952091D301AF
:1004F0003091D4012817390771F49091D10180917E
:10050000D201981741F0E091D101F0E0E457FE4F9D
:10051000808190E008958FEF9FEF08950895EF9206
:10052000FF920F931F93CF93DF93DC015C96ED90C6
:10053000FC905D97E114F10479F481E090E013966A
:100540009C938E93129790E080E0DF91CF911F9162
:100550000F91FF90EF9008955196ED91FC91529775
:1005600050968C915097982F90950FB75E962C913E
:100570005E97122F127021FD6095F894208111234F
:1005800019F1282B2083E7012197F1F728E0462F66
:1005900050E0308160FF1AC0382B3083E70121978B
:1005A000F1F7BA0175956795215089F7112381F00C
:1005B0008081892380830FBF5C968D919C910197E8
:1005C000F1F781E090E0C1CF2923DCCF3923E5CFDB
:1005D0009081892BEFCF2091D3013091D40128173E
:1005E000390771F48091D2012091D10190E0805CB3
:1005F0009F4F821B910960E470E00E9410090895EA
:1006000090E080E008952091D3013091D401281723
:100610003907B9F49091D1018091D201981789F0EE
:10062000E091D101F0E0E457FE4F80812091D101AB
:1006300030E02F5F3F4F2F7333272093D10190E09D
:1006400008958FEF9FEF089590E080E00895FC01FA
:1006500001900020E9F73197AF01481B590BBC010D
:1006600089ED91E00C948D008F929F92AF92BF9292
:100670000F931F93CF93DF93CDB7DEB7A1970FB63C
:10068000F894DEBF0FBECDBF19A2423008F44AE095
:100690008E010F5D1F4F842E912CB12CA12CA50132
:1006A00094010E94EE08E62FB901CA01EA30F4F481
:1006B000E05DD801EE938D01232B242B252B79F7B8
:1006C00090E080E0109719F0CD010E942703A196D9
:1006D0000FB6F894DEBF0FBECDBFDF91CF911F9153
:1006E0000F91BF90AF909F908F900895E95CE1CFFC
:1006F000CF93DF930E942703EC0184E291E00E94F4
:1007000027038C0F9D1FDF91CF9108951F920F92A9
:100710000FB60F9211242F933F934F935F936F93D4
:100720007F938F939F93AF93BF93EF93FF9389ED45
:1007300091E00E940B01FF91EF91BF91AF919F91CA
:100740008F917F916F915F914F913F912F910F907A
:100750000FBE0F901F9018951F920F920FB60F9219
:1007600011242F938F939F93EF93FF93E091E901CF
:10077000F091EA018081E091EF01F091F00182FDBA
:100780001BC090818091F2018F5F8F732091F301E4
:10079000821741F0E091F201F0E0E752FE4F958FB1
:1007A0008093F201FF91EF919F918F912F910F9084
:1007B0000FBE0F901F9018958081F4CF1F920F925B
:1007C0000FB60F9211242F933F938F939F93AF9364
:1007D000BF938091D5019091D601A091D701B0919E
:1007E000D8013091CC0123E0230F2D3758F5019625
:1007F000A11DB11D2093CC018093D5019093D6010A
:10080000A093D701B093D8018091CD019091CE01F2
:10081000A091CF01B091D0010196A11DB11D80938F
:10082000CD019093CE01A093CF01B093D001BF91A1
:10083000AF919F918F913F912F910F900FBE0F908D
:100840001F90189526E8230F0296A11DB11DD2CF47
:100850001F920F920FB60F9211242F933F934F9335
:100860005F936F937F938F939F93AF93BF93EF9318
:10087000FF93E091D301F091D401309749F0A68520
:10088000B7858585968D91FF14C09C918923A1F42D
:10089000FF91EF91BF91AF919F918F917F916F9158
:1008A0005F914F913F912F910F900FBE0F901F902E
:1008B00018959C91892361F7A389B4899C918589B6
:1008C000809589238C93868997890197F1F7608DAC
:1008D000718DA685B785558538E020E0CB0101975D
:1008E000F1F7822F90E095958795282F4C9145231D
:1008F00009F02068315091F7868D81FD2095809117
:10090000D20190E001968F7399273091D101381769
:1009100099F0A091D201B0E0A457BE4F2C938093E0
:10092000D201828D938D0197F1F7A389B4898C91BF
:100930009589892B8C93ACCF868D8160868FF1CF82
:100940001092DC011092DB0188EE93E0A0E0B0E0B1
:100950008093DD019093DE01A093DF01B093E0016D
:1009600024E031E03093DA012093D90125EC30E026
:100970003093E6012093E50124EC30E03093E80168
:100980002093E70120EC30E03093EA012093E90165
:1009900021EC30E03093EC012093EB0122EC30E0CD
:1009A0003093EE012093ED0126EC30E03093F0011E
:1009B0002093EF011092F2011092F3011092F401D2
:1009C0001092F50110929303109292038093940376
:1009D00090939503A0939603B093970386E191E0DB
:1009E00090939103809390031092A7031092A60313
:1009F0001092A9031092A8031092AB031092AA03BD
:100A00001092AD031092AC036091AE036E7F6D7FC8
:100A10006093AE036695617081E068278BE00E9469
:100A20009A0161E08BE00E94EE01E9EBF0E0E491D5
:100A3000E093A003E5EAF0E0E491F0E0EE0FFF1FA1
:100A4000E057FF4F859194919093A2038093A10367
:100A500060E08AE00E94EE018091AE0381FD04C057
:100A600061E08AE00E949A018AE080939C03E8EBAF
:100A7000F0E0E491E0939D03E4EAF0E0E491F0E03B
:100A8000EE0FFF1FEA57FF4F8591949190939F03BC
:100A900080939E0310928B0310928A0310928D0311
:100AA00010928C0310928F0310928E030895CF93AF
:100AB000DF93CDB7DEB7DA950FB6F894DEBF0FBE81
:100AC000CDBF789484B5826084BD84B5816084BDD7
:100AD00085B5826085BD85B5816085BD80916E00DC
:100AE000816080936E00109281008091810082600D
:100AF000809381008091810081608093810080914A
:100B000080008160809380008091B1008460809338
:100B1000B1008091B00081608093B00080917A0034
:100B2000846080937A0080917A00826080937A005A
:100B300080917A00816080937A0080917A00806849
:100B400080937A001092C10061E08CE00E94EE0177
:100B500060E08CE00E949A01E091E901F091EA01E5
:100B600082E08083E091E501F091E6011082E0915E
:100B7000E701F091E8018FEC80831092F101E091A0
:100B8000ED01F091EE0186E08083E091EB01F091C0
:100B9000EC01808180618083E091EB01F091EC01B8
:100BA000808188608083E091EB01F091EC0180818D
:100BB00080688083E091EB01F091EC0180818F7D72
:100BC00080831092AB031092AA031092A903109293
:100BD000A8031092A7031092A6038DE991E09093C9
:100BE000AD038093AC0390919C03963108F047C00D
:100BF0002DEB30E03093A7032093A6032BE931E0DF
:100C00003093A9032093A8032CE231E03093AB0387
:100C10002093AA032091680084E0983048F031E0E6
:100C20009E3008F430E081E001C0880F3A95EAF781
:100C3000822B809368002DE630E0983050F02BE650
:100C400030E09E3030F02CE630E0963110F030E0AD
:100C500020E03093A4032093A303292F30E09830A1
:100C600008F04AC181E001C0880F9A95EAF78093A5
:100C7000A5038091AC039091AD030197F1F78091AA
:100C8000AA039091AB03892B49F1E091D301F09134
:100C9000D40123E0E039F20709F1309739F0A38954
:100CA000B4899C918589809589238C938091AE032A
:100CB0008E7F8093AE031092D2011092D10180E911
:100CC00093E09093D4018093D301E091A303F0913A
:100CD000A40380819091A503892B808381E0809378
:100CE000780280E993E090937702809376021092E5
:100CF0008303109285031092840386EE91E0909313
:100D00008D0380938C038AEE91E090938F03809300
:100D10008E036E0137E0C30ED11CE0E0AE2EE0E0A2
:100D2000BE2E78E0672E712C87E291E00E94780356
:100D300060ED77E080E090E00E94440280E993E07B
:100D40000E94EB021816190624F487E391E00E9432
:100D5000780381E090E090937A0280937902709218
:100D60007C0260927B0280917802898393E09A836F
:100D70001B82A1E0AC831D8288E08E838E010F5F11
:100D80001F4FF8018FEF9FEF78012191822728E014
:100D900030E0AC014170552796958795452B21F0A1
:100DA000B1E08B27B0EA9B272150310991F7EC1570
:100DB000FD0559F78F839887198680917602909167
:100DC0007702DC01ED91FC910284F385E02D099519
:100DD000019699F7E0918C03F0918D03309709F01B
:100DE00009954801E8E08E0E911C80917602909161
:100DF0007702D8016D918D01DC01ED91FC9101909C
:100E0000F081E02D09958016910679F780917602A0
:100E100090917702DC01ED91FC910680F781E02D45
:100E20000995E0918E03F0918F03309709F00995B1
:100E30008FB7F8942090D5013090D6014090D7011B
:100E40005090D8018FBF10E008E080917602909119
:100E50007702DC01ED91FC910084F185E02D09958C
:100E6000892B09F459C08091760290917702DC01B8
:100E7000ED91FC910284F385E02D0995F701E10FD6
:100E8000F11D808301501F5F153009F06CC09981FE
:100E900080917802981380C1EA818E2F8F778330FA
:100EA00009F07DC1E7FF41C09B80911078C02FEF12
:100EB0003FEFA0E0812F90E0AC01425051096A2F32
:100EC00070E0641775070CF012C16E0D7F1DFB01F9
:100ED0006081262768E070E0F901E170FF27369510
:100EE0002795EF2B21F0F1E02F27F0EA3F27615003
:100EF000710991F7AF5FE3CF9E3040F4285031097C
:100F000081E001C0880F2A95EAF7B1CE2E50310951
:100F1000F7CF82EE982E3DC0E0918A03F0918B03CB
:100F2000309709F4B1CF0995AFCFE350E531D8F44C
:100F3000F0E0E356F84F0C942409B207B2074008DA
:100F40004008B307B307B307B307B307B307B30743
:100F5000B30740084008B307B307B307B307B307A5
:100F60003E08B2070B812FB7F8948091D50190917C
:100F7000D601A091D701B091D8012FBF8219930952
:100F8000A409B509813D9740A105B10508F0C1CF7D
:100F9000912C002309F476C0992009F456CF1092C1
:100FA0008303109285031092840310928803692DA5
:100FB00070E090E080E04AE00E943403B0EE9B12C3
:100FC00004C08BE491E00E9427038CE591E00E942D
:100FD00027038DE7E82E82E0F82E8701F801619162
:100FE00071918F0190E080E04AE00E94340382E634
:100FF00091E00E942703F2E00D381F0779F786E29F
:1010000091E00E94780381E791E0992011F084E655
:1010100091E00E942703EDE7F2E0119211922DEF8B
:1010200032E02E173F07C9F78CE591E00E942703B5
:10103000D7016D917D917D0190E080E04AE00E94B2
:10104000340382E691E00E9427030E151F0581F705
:1010500086E291E00E94780368EE73E080E090E021
:101060000E944402A114B10409F45ECE0E94F7006C
:10107000882309F459CE0E94000053CE05E073CFB7
:1010800003E071CF91108BCF153008F010CF8A811B
:10109000853030F4833030F48130C0F5912C7FCF2F
:1010A0008731E1F72B8130E03595279580918903D1
:1010B00040E0E42FF0E0E217F3070CF06AC04034A0
:1010C00098F4CF010296880F991FEE0FFF1FEA5880
:1010D000FD4FDE01A80FB91F5C918E0D9F1DDC0135
:1010E0008C91952F90878783842F4F5FE2CF4E0D91
:1010F0005F1DDA014C91421306C08C0F9D1FFC014D
:101100008081831721F293EE992E49CF5B81252FA1
:1011100030E0359527956091890340E0842F90E079
:1011200082179307E4F44034B8F4880F991FFC0148
:10113000EA58FD4FA5E0B0E0AC0FBD1FA80FB91FE6
:101140006C91A4E0B0E0AC0FBD1F8A0F9B1FDC01C7
:101150008C91962F90878783642F4F5FDFCF6093AA
:10116000890350FF9BCF403480F4880F991FFC0106
:10117000EA58FD4F24E030E02C0F3D1F820F931FF3
:10118000DC018C9190E0908787834F5F40938903C7
:1011900085CF8093890382CF30EE932E00CF21EE4E
:1011A000922EFDCE86E191E090939103809390037F
:1011B0008091D3019091D4018059934071F4E091D2
:1011C000A303F091A40390818091A50380958923C6
:1011D00080831092D4011092D3010895A1E21A2EB7
:1011E000AA1BBB1BFD010DC0AA1FBB1FEE1FFF1FCB
:1011F000A217B307E407F50720F0A21BB30BE40B1B
:10120000F50B661F771F881F991F1A9469F7609561
:101210007095809590959B01AC01BD01CF0108951B
:1012200097FB072E16F4009407D077FD09D00E9493
:101230002A0907FC05D03EF4909581959F4F0895AB
:10124000709561957F4F0895EE0FFF1F0590F49103
:10125000E02D0994AA1BBB1B51E107C0AA1FBB1FAD
:10126000A617B70710F0A61BB70B881F991F5A9532
:10127000A9F780959095BC01CD01089510E0C2E6D4
:10128000D0E004C0FE010E9424092196C336D10794
:06129000C9F7F894FFCF3E
:10129600000000002D018D00BA007A01EB00C900A4
:1012A600DD00000000008F028D0024038E02EB0299
:1012B600030376020D0A00656E7465726564206923
:1012C6006E206C6F6F700053657269616C20697374
:1012D60020617661696C61626C6500496E76616C4D
:1012E600696420736C617665206964006461746169
:1012F6003A002C006E6F74206F627461696E6564CB
:101306000064617461206F627461696E6564207344
:0C13160075636365737366756C6C790019
:00000001FF
